RA123456789EF123456         0      98ACME USA East                                                                  123 Main St Unit 123  New York              NY12345                                                 ACME USA East                                            123 Main St Unit 123  123 Main St Unit 123  New York              NY12345                                                 Mr Administrator           5465488522     655     demoadmin@abc-company.com                             L            
RE2019 123456789         0             ACME USA East                                                                  123 Main St Unit 123  New York              NY12345    N                                            R 0Mr Administrator           5465488522     655            demoadmin@abc-company.com                                                                                                                                                                                                                 
RW655264269Mr                            Administrator           Unit 908              6283 Main St          New York              NY00508                                                 00002627295000002502740000260055900000162891000026272950000003809000000026736           000026272950000000000000000000000000000000000000000000000000000000           00000026736000000000000000000000000000000000           00000000000000000000000000000000000000000000000000000000000000000000000000000 0 00                       
RO         0000002673600002627295000000267360000262729500000026736000000000000000000000000000000000           000000000000000000000000000000000                                                                                                                                   00000000000000000000000000000000000000000000000000000000000000000000000000000           0000000000000000000000                                                                                                                                
RW943711027John                          Doe                     Unit 959              1578 Springfield St   New York              NY00474                                                 00002627295000002502740000260055900000162891000026272950000003809000000026736           000026272950000000000000000000000000000000000000000000000000000000           00000026736000000000000000000000000000000000           00000000000000000000000000000000000000000000000000000000000000000000000000000 0 00                       
RO         0000002673600002627295000000267360000262729500000026736000000000000000000000000000000000           000000000000000000000000000000000                                                                                                                                   00000000000000000000000000000000000000000000000000000000000000000000000000000           0000000000000000000000                                                                                                                                
RW694004876Kitty                         Nicholas                Unit 329              2330 Ethel St         New York              NY00580                                                 00002627295000002502740000260055900000162891000026272950000003809000000026736           000026272950000000000000000000000000000000000000000000000000000000           00000026736000000000000000000000000000000000           00000000000000000000000000000000000000000000000000000000000000000000000000000 0 00                       
RO         0000002673600002627295000000267360000262729500000026736000000000000000000000000000000000           000000000000000000000000000000000                                                                                                                                   00000000000000000000000000000000000000000000000000000000000000000000000000000           0000000000000000000000                                                                                                                                
RW880289804Theodora                      Simmons                 Unit 953              9629 Springfield St   New York              NY00417                                                 00002627295000002502740000260055900000162891000026272950000003809000000026736           000026272950000000000000000000000000000000000000000000000000000000           00000026736000000000000000000000000000000000           00000000000000000000000000000000000000000000000000000000000000000000000000000 0 00                       
RO         0000002673600002627295000000267360000262729500000026736000000000000000000000000000000000           000000000000000000000000000000000                                                                                                                                   00000000000000000000000000000000000000000000000000000000000000000000000000000           0000000000000000000000                                                                                                                                
RT0000004000000010509180000000001001096000000010402236000000000651564000000010509180000000000152360000000000106944               000000010509180000000000000000000000000000000000000000000000000000000000000000000000000000               000000000106944000000000000000000000000000000000000000000000000000000000000000000000000000000000000000000000000000000000000000000000000000000000000000000000000000000000000000000000                                                                                                  
RU0000004000000000106944000000010509180000000000106944000000010509180000000000106944000000000000000000000000000000000000000000000               000000000000000000000000000000000000000000000                                                                                                                                                                     000000000000000000000000000000000000000000000000000000000000000000000000000000000000000000000000000000000000000000000000000000000000000                       
RF     000000004                                                                                                                                                                                                                                                                                                                                                                                                                                                                                                                
