E2022929356262         ACME CO                                           123 MAIN ST                             AUSTIN                   CA        12345      R      UTAX06999999999      031T                                                                                    
S123456789DOE                 JOHN        M06                  00000000400051                                                                     99999999090                   0000000040015200000000004260      Z   032022                                                       
T0000001000000000000000000000000004000510000000000000000000000000000000000000000000000000000000000000000000000000000000000000000000000000000000000000000000000000000000000000000000000000000000000000000000000400152000000000042600000001000000000000010000000000000000000000000000
