RA929356262                                                                                                                                                                                                             ACME CO                                                                                                                                                                                                                                                                                                 
RE2022 929356262                       ACME CO                                                                        123 MAIN ST           AUSTIN                NE12345                                                    030999999999                                                                                                                                                                                                                                                                                       
RS31     123456789JOHN           M              DOE                                                                                                                                                 032022000004000510123                              0999999999                                                                                                                                                                                                                                                               
RT0000001000000000400051                                                                                                                                                                                                                                                                                                                                                                                       000000000100049000000000300050002.8000004159000010000000001                                                      
RF     000000001000000001                                                                                                                                                                                                                                                                                                                                                                                                                                                                                                       
