A2022929356262UTAX     ACME CO                                           123 MAIN ST                             AUSTIN                   MN             12345     MR ADMINISTRATOR              5555555555                                       12312022                         
B2022929356262     NL                                                                                                                                                                                                            DEMOADMIN1@ABC-COMPANY.COM                        
E2022929356262         ACME CO                                           123 MAIN ST                             AUSTIN                   MN        12345      R      UTAX27999999999      031T                                                                                    
S123456789DOE                 JOHN        M27    0000000040005100000000400051000000001000490000000030005000000000000000000000000016123        UTAX99999999       0000                                            0 101032022012019022022                                          X
T0000001UTAX000000004000510000000040005100000000100049000000003000500000000000000.02800000000000840100000000000000000000000000000000000000000000    00000000000    000000000000000000000000000000000000000000000000000000000000000000000100000000000001                            
F00000000010000000001UTAX0000000004000510000000004000510000000001000490000000003000500000000000000000000000000000000000000100000000000000010000000000000000000000000000000000000000000000000000000000000000000000000000000000000000000000000000000000000000000000000000000000000000
