A2022929356262UTAX     ACME CO                                           123 MAIN ST                             AUSTIN                   TX             12345     MR ADMINISTRATOR              5555555555                                       12312022                         
B2022929356262     NL                                                                                                                                                                                                            DEMOADMIN1@ABC-COMPANY.COM                        
E2022929356262         ACME CO                                           123 MAIN ST                             AUSTIN                   TX        12345      R      UTAX00999999999      031T                                                                                    
S123456789DOE                 JOHN        M00    0000000040005100000000400051000000001000490000000030005000000000000000000000000016123        UTAX000000999999999                                                0 101032022012019022022                                           
S123456799SMITH               JANE        N00    0000000040005000000000400050000000001000480000000030004900000000000000000000000015122        UTAX000000999999999                                                0 010032022012018022022                                           
T0000002UTAX000000008001010000000080010100000000200097000000006000990000000000000.02800000000001680300000000000000000000000000000000000000000000    00000000000    000000000000000000000000000000000000000000000000000000000000000000000100000010000001                            
F00000000020000000001UTAX0000000008001010000000008001010000000002000970000000006000990000000000000000000000000000000000000100000001000000010000000000000000000000000000000000000000000000000000000000000000000000000000000000000000000000000000000000000000000000000000000000000000
